:100000000C9446000C9450000C9450000C9450003A
:100010000C9450000C9450000C9450000C94500020
:100020000C9450000C9450000C9450000C94500010
:100030000C9450000C9450000C9450000C94500000
:100040000C9450000C9450000C9450000C945000F0
:100050000C9450000C9450000C9450000C945000E0
:100060000C9450000C9450000C9450000C945000D0
:100070000C9450000C9450000C9450000C946F00A1
:100080000C9450000C9450000C94500011241FBE8E
:10009000CFEFD0E1DEBFCDBF0E947E000C94980070
:1000A0000C9400001092980087E680939900EDE987
:1000B000F0E0808186608083EAE9F0E080818863F7
:1000C000808308951092900087E689B9E5E9F0E011
:1000D0008081866080838AB188698AB908951F9279
:1000E0000F920FB60F9211248F938AE580939C0094
:1000F0008F910F900FBE0F901F90189578940E94CB
:1001000052008FEF84BB85BB20E931E04FEF15BA79
:1001100088E893E1F9013197F1F70197D9F745BBE9
:1001200088E893E1F9013197F1F70197D9F7EFCF1B
:04013000F894FFCF71
:00000001FF
