:100000000C9446000C9463000C9463000C94630001
:100010000C9463000C9463000C9463000C946300D4
:100020000C9463000C9463000C9463000C946300C4
:100030000C9463000C9463000C9463000C946300B4
:100040000C9463000C9463000C9463000C946300A4
:100050000C9463000C9463000C9463000C94630094
:100060000C9463000C9463000C9463000C94630084
:100070000C9463000C9463000C9463000C94630074
:100080000C9463000C9463000C94630011241FBE55
:10009000CFEFD0E1DEBFCDBF11E0A0E0B1E0EEE0F8
:1000A000F1E002C005900D92A030B107D9F711E040
:1000B000A0E0B1E001C01D92A030B107E1F70E94BD
:1000C00067000C9485000C940000D39A0895DF9388
:1000D000CF9300D00F92CDB7DEB7D39ADB9A1982B7
:1000E00010C01B821A8205C08A819B8101969B8366
:1000F0008A838A819B818055934CB0F389818F5F7D
:0E010000898389818A3068F3FFCFF894FFCF9E
:00000001FF
