:100000000C9446000C9463000C9463000C94630001
:100010000C9463000C9463000C9463000C946300D4
:100020000C9463000C9463000C9463000C946300C4
:100030000C9463000C9463000C9463000C946300B4
:100040000C9463000C9463000C9463000C946300A4
:100050000C9463000C9463000C9463000C94630094
:100060000C9463000C9463000C9463000C94630084
:100070000C9463000C9463000C9463000C94630074
:100080000C9463000C9463000C94630011241FBE55
:10009000CFEFD0E1DEBFCDBF11E0A0E0B1E0E2E004
:1000A000FFE002C005900D92AE33B107D9F711E021
:1000B000AEE3B1E001C01D92A036B107E1F70E94A6
:1000C00065040C947F070C9400009B01AC01109216
:1000D000980084E0220F331F441F551F8A95D1F7E3
:1000E00060E074E284EF90E00E948504215030408B
:1000F00020939900EDE9F0E0808186608083EAE951
:10010000F0E080818869808308959B01AC011092A2
:10011000900094E0220F331F441F551F9A95D1F78A
:1001200060E074E284EF90E00E948504215030404A
:1001300029B9E5E9F0E08081866080838AB1886929
:100140008AB90895982F80919B0085FFFCCF9093EA
:100150009C008AE991E020E931E0F9013197F1F75B
:100160000197D9F70895CF93DF93EC0103C00E9464
:10017000A200219688818823D1F7DF91CF9108953D
:10018000DF93CF9300D000D00F92CDB7DEB79C01A4
:100190006AE070E00E9471048A83C9016AE070E03D
:1001A0000E9471049B01CB016AE070E00E9471041F
:1001B0008B83C9016AE070E00E9471049B01CB014E
:1001C0006AE070E00E9471048C83C9016AE070E00B
:1001D0000E947104CB016AE070E00E9471048D837B
:1001E000805D0E94A2008C81805D0E94A2008B81B4
:1001F000805D0E94A2008A81805D0E94A2000F9013
:100200000F900F900F900F90CF91DF9108951F9353
:100210009C016AE070E00E947104182FC9016AE035
:1002200070E00E947104CB016AE070E00E947104EA
:10023000805D0E94A200812F805D0E94A2001F911C
:10024000089580919B0087FFFCCF80919C000895CA
:10025000FC0120E030E080919B0087FFFCCF809183
:100260009C0080838D3011F4108208952F5F3F4FE2
:1002700031962436310579F70895DF93CF9300D076
:1002800000D000D0CDB7DEB760E070E09E012F5FF8
:100290003F4F80919B0087FFFCCF80919C00F9012C
:1002A000E60FF71F80538083805D8D3029F06F5FEC
:1002B0007F4F6630710569F761507040FE013197DC
:1002C000E60FF71F408184E6489FA0011124FE013C
:1002D000E60FF71F80812AE0829FC0011124480F9A
:1002E000591FFE01E60FF71F8181480F511DFE01C6
:1002F0003297E60FF71F808190E028EE33E0BC01D3
:10030000629FC001639F900D729F900D1124480F52
:10031000591FCA0126960FB6F894DEBF0FBECDBF97
:10032000CF91DF9108950F931F93DF93CF9300D068
:1003300000D00F92CDB7DEB7A1E0B0E09E012F5FF5
:100340003F4F80919B0087FFFCCF80919C00F9017B
:10035000EA0FFB1F80538083805D8D3021F0119662
:10036000A530B10571F78D0101501040AC0FBD1FD4
:100370008C91805D0E94A200FE01E00FF11F808140
:100380002AE0829FC0011124805D0E94A200FE012C
:100390003197E00FF11F808124E6829FC001112474
:1003A000805D0E94A2000F900F900F900F900F9011
:1003B000CF91DF911F910F91089580919B0087FF4E
:1003C000FCCF20919C0080919B0087FFFCCF809107
:1003D0009C0020539AE0299F902D11248053890F6F
:1003E00090E008955D9BFECF8CB90895FC0104C098
:1003F0005D9BFECF8CB9319680818823C9F7089523
:10040000DF93CF9300D000D00F92CDB7DEB79C0121
:100410006AE070E00E9471048A83C9016AE070E0BA
:100420000E9471049B01CB016AE070E00E9471049C
:100430008B83C9016AE070E00E9471049B01CB01CB
:100440006AE070E00E9471048C83C9016AE070E088
:100450000E947104CB016AE070E00E9471048D83F8
:10046000FE0135969E012F5F3F4F80815D9BFECF41
:10047000805D8CB931972E173F07B9F70F900F9019
:100480000F900F900F90CF91DF910895DF93CF934E
:1004900000D0CDB7DEB79C016AE070E00E94710425
:1004A0008A83C9016AE070E00E947104CB016AE0AE
:1004B00070E00E9471048B83FE0133969E012F5FD2
:1004C0003F4F80815D9BFECF805D8CB931972E17A9
:1004D0003F07B9F70F900F90CF91DF9108955F9B81
:1004E000FECF8CB10895FC0120E030E05F9BFECF91
:1004F0008CB180838D3011F4108208952F5F3F4FAF
:1005000031962436310591F70895DF93CF9300D0CB
:1005100000D000D0CDB7DEB760E070E09E012F5F65
:100520003F4F5F9BFECF8CB18053F901E60FF71F61
:1005300080838D3029F06F5F7F4F6630710589F7BA
:1005400061507040FE013197E60FF71F408184E64D
:10055000489FA0011124FE01E60FF71F80812AE0C9
:10056000829FC0011124480F591FFE01E60FF71F9B
:100570008181480F511DFE013297E60FF71F8081E0
:1005800090E028EE33E0BC01629FC001639F900DB4
:10059000729F900D1124480F591FCA0126960FB65D
:1005A000F894DEBF0FBECDBFCF91DF910895CF93FA
:1005B000DF9341E050E05F9BFECF8CB1E82FF0E08D
:1005C000ED30F10529F04F5F5F4F4530510599F748
:1005D000CF0164E670E00E947104462F262F30E0C0
:1005E0008CE99FEF289FE001299FD00D389FD00D07
:1005F0001124CE018E0F9F1F6AE070E00E947104EB
:100600005D9BFECF80E38CB95D9BFECF405D4CB916
:100610005D9BFECF605D6CB960535D9BFECF2E2F5E
:10062000205D2C0F86EF9FEF689F802D1124820F95
:100630008CB9DF91CF9108955F9BFECF2CB15F9B6A
:10064000FECF8CB120539AE0299F902D1124805326
:10065000890F90E0089588E480937000089584EAFB
:10066000809374008091740087FFFCCF80ED8093AD
:10067000730084E8809374008091740087FFFCCF3E
:100680001092730084E8809374008091740087FF57
:10069000FCCF85E58093730084E88093740080919B
:1006A000740087FFFCCF89E58093730084E8809312
:1006B00074008091740087FFFCCF81E58093730004
:1006C00084E8809374008091740087FFFCCF84E9F4
:1006D000809374008091740084FFFCCF0895282FCC
:1006E00022952F7030E0A90173E0440F551F7A95D1
:1006F000E1F7220F331F420F531F8F70840F0895AD
:10070000282F30E020713070A4E035952795AA9508
:10071000E1F7A901F3E0440F551FFA95E1F7220F25
:10072000331F420F531F8F70840F0895CF93DF93B1
:1007300084EA809374008091740087FFFCCF80ED81
:100740008093730084E8809374008091740087FF25
:10075000FCCF1092730084E8809374008091740041
:1007600087FFFCCF84EA809374008091740087FF38
:10077000FCCF81ED8093730084E8809374008091B6
:10078000740087FFFCCF84EC809374008091740028
:1007900087FFFCCF4091730040935D01842F8295C9
:1007A0008F7090E09C0163E0220F331F6A95E1F7A0
:1007B000880F991F280F391FA42FAF70A20F84EC48
:1007C000809374008091740087FFFCCF4091730088
:1007D00040935F01842F82958F7090E09C01B3E07D
:1007E000220F331FBA95E1F7880F991F280F391F81
:1007F000542F5F70520F84EC8093740080917400CA
:1008000087FFFCCF4091730040935E0140935C01F1
:10081000642F70E0CB0180719070E4E0959587952E
:10082000EA95E1F79C0173E0220F331F7A95E1F717
:10083000880F991F280F391F4F70420F84EC809347
:1008400074008091740087FFFCCF8EE391E065FF18
:1008500013C02DB73EB72A5030400FB6F8943EBFB4
:100860000FBE2DBFEDB7FEB73196CDB7DEB79A8379
:10087000898380E091E00FC0CDB7DEB72A970FB62D
:10088000F894DEBF0FBECDBFEDB7FEB731969A83A9
:1008900089838FE191E09383828344831582568319
:1008A0001782A08711860E94A7042DB73EB7265F46
:1008B0003F4F0FB6F8943EBF0FBE2DBF8EE391E0C1
:1008C0000E94B300DF91CF91089560E875E280E067
:1008D00090E00E94650088E4809370000E94960377
:1008E000FDCFAA1BBB1B51E107C0AA1FBB1FA61748
:1008F000B70710F0A61BB70B881F991F5A95A9F7C9
:1009000080959095BC01CD010895A1E21A2EAA1BF5
:10091000BB1BFD010DC0AA1FBB1FEE1FFF1FA217AF
:10092000B307E407F50720F0A21BB30BE40BF50BAC
:10093000661F771F881F991F1A9469F76095709535
:10094000809590959B01AC01BD01CF010895AEE06B
:10095000B0E0EDEAF4E00C9456070D891E8986E0BC
:100960008C831A8309838FEF9FE79E838D839E017B
:10097000275E3F4FCE0101966F89788DA9010E94B5
:10098000CB042F813885020F131FF80110822E9699
:10099000E4E00C947207ABE0B0E0E1EDF4E00C941D
:1009A00048073C012B015A01FC0117821682838102
:1009B00081FD03C06FEF7FEFC6C19AE0892E1E0153
:1009C0000894211C311CF3012381F20123FD859140
:1009D00023FF81912F01882309F4B2C1853239F4B4
:1009E00023FD859123FF81912F01853229F490E029
:1009F000B3010E94BE06E7CF982FFF24EE2499246E
:100A0000FFE1FF15D0F09B3269F09C3228F4903260
:100A100059F0933291F40EC09D3249F0903369F44D
:100A200041E024C052E0F52A84E0F82A28C098E08A
:100A3000F92A25C0E0E1FE2A22C0F7FC29C0892F4F
:100A400080538A3070F4F6FE05C0989C902C1124D7
:100A5000980E15C0E89CE02C1124E80EF0E2FF2A65
:100A60000EC09E3229F4F6FC6BC140E4F42A07C0A4
:100A70009C3619F450E8F52A02C0983649F4F20180
:100A800023FD959123FF91912F01992309F0B8CF70
:100A9000892F8554833018F08052833038F444E035
:100AA00050E0A40EB51E5FE359830FC0933631F0BA
:100AB000933779F0933509F056C020C0F501808155
:100AC000898342E050E0A40EB51E610101E010E010
:100AD00012C0F501C080D180F6FC03C06FEF7FEF3C
:100AE00002C0692D70E042E050E0A40EB51EC601C0
:100AF0000E94B3068C015FE7F52214C0F501C080A7
:100B0000D180F6FC03C06FEF7FEF02C0692D70E06B
:100B100042E050E0A40EB51EC6010E94A8068C015A
:100B200050E8F52AF3FE07C01AC080E290E0B30156
:100B30000E94BE06EA948E2D90E008171907A8F3CC
:100B40000EC0F601F7FC8591F7FE81916F0190E0F0
:100B5000B3010E94BE06E110EA9401501040011555
:100B6000110579F7EAC0943611F0993669F5F7FE68
:100B700008C0F501208131814281538184E090E0F9
:100B80000AC0F501808191819C01442737FD409581
:100B9000542F82E090E0A80EB91E9FE6F92257FF7D
:100BA00009C050954095309521953F4F4F4F5F4F6D
:100BB000E0E8FE2ACA01B901A1012AE030E00E9462
:100BC000EA06D82ED21840C0953729F41F2D1F7E73
:100BD0002AE030E01DC01F2D197F9F3661F090374D
:100BE00020F4983509F0ACC00FC0903739F0983731
:100BF00009F0A6C004C028E030E00AC0106114FD6E
:100C0000146020E130E004C014FD166020E132E001
:100C100017FF08C0F501608171818281938144E0F2
:100C200050E008C0F50180819181BC0180E090E036
:100C300042E050E0A40EB51EA1010E94EA06D82EA3
:100C4000D2188FE7F82EF122F6FE0BC05EEFF522E8
:100C5000D91438F4F4FE07C0F2FC05C08FEEF82278
:100C600002C01D2D01C0192DF4FE0DC0FE01ED0DB9
:100C7000F11D8081803319F499EEF92208C01F5FBD
:100C8000F2FE05C003C08F2D867809F01F5F0F2D7F
:100C9000F3FC14C0F0FE0FC01E1510F09D2C0BC00D
:100CA0009D2C9E0C911A1E2D06C080E290E0B3018F
:100CB0000E94BE061F5F1E15C0F304C01E1510F46F
:100CC000E11A01C0EE2404FF0FC080E390E0B301FD
:100CD0000E94BE0602FF1DC001FD03C088E790E030
:100CE0000EC088E590E00BC0802F867891F001FF60
:100CF00002C08BE201C080E2F7FC8DE290E0B3011C
:100D00000E94BE0606C080E390E0B3010E94BE06CA
:100D10009A94D914C0F3DA94F101ED0DF11D80819C
:100D200090E0B3010E94BE06DD20A9F706C080E274
:100D300090E0B3010E94BE06EA94EE20C1F743CED4
:100D4000F30166817781CB012B96E2E10C94640775
:100D5000FC010590615070400110D8F78095909586
:100D60008E0F9F1F0895FC0161507040019001108B
:100D7000D8F7809590958E0F9F1F08950F931F931E
:100D8000CF93DF938C01EB018B8181FF1BC082FF2E
:100D90000DC02E813F818C819D812817390764F415
:100DA000E881F9810193F983E88306C0E885F98534
:100DB000802F0995892B31F48E819F8101969F8325
:100DC0008E8302C00FEF1FEFC801DF91CF911F91FB
:100DD0000F910895FA01AA27283051F1203181F1AD
:100DE000E8946F936E7F6E5F7F4F8F4F9F4FAF4F33
:100DF000B1E03ED0B4E03CD0670F781F891F9A1F46
:100E0000A11D680F791F8A1F911DA11D6A0F711DF9
:100E1000811D911DA11D20D009F468943F912AE005
:100E2000269F11243019305D3193DEF6CF010895ED
:100E3000462F4770405D4193B3E00FD0C9F7F6CF1E
:100E4000462F4F70405D4A3318F0495D31FD4052E6
:100E5000419302D0A9F7EACFB4E0A695979587957C
:100E600077956795BA95C9F700976105710508955B
:100E70009B01AC010A2E0694579547953795279507
:100E8000BA95C9F7620F731F841F951FA01D08959F
:100E90002F923F924F925F926F927F928F929F928A
:100EA000AF92BF92CF92DF92EF92FF920F931F9378
:100EB000CF93DF93CDB7DEB7CA1BDB0B0FB6F89429
:100EC000DEBF0FBECDBF09942A88398848885F8469
:100ED0006E847D848C849B84AA84B984C884DF80DA
:100EE000EE80FD800C811B81AA81B981CE0FD11DBE
:100EF0000FB6F894DEBF0FBECDBFED010895F89494
:020F0000FFCF21
:100F02005254432054696D653A20253032643A20A8
:100F1200253032643A202530326420706D0A005246
:100F220054432054696D653A20253032643A2025B5
:0E0F32003032643A202530326420616D0A00AE
:00000001FF
