:100000000C9446000C9463000C9463000C94630001
:100010000C9463000C9463000C9463000C946300D4
:100020000C9463000C9463000C9463000C946300C4
:100030000C9463000C9463000C9463000C946300B4
:100040000C9463000C9463000C9463000C946300A4
:100050000C9463000C9463000C9463000C94630094
:100060000C9463000C9463000C9463000C94630084
:100070000C9463000C9463000C9463000C94630074
:100080000C9463000C9463000C94630011241FBE55
:10009000CFEFD0E1DEBFCDBF11E0A0E0B1E0E4E002
:1000A000F4E002C005900D92A831B107D9F711E034
:1000B000A8E1B1E001C01D92AB31B107E1F70E94A8
:1000C00052010C9400020C9400002091180190E061
:1000D00002C09F5F2AE09817E0F3209318019093E5
:1000E00019010895DA9A8AEF0E946500DA98089556
:1000F000DF93CF930F92CDB7DEB79BB394709BBBCA
:10010000982F907F9BBB89830E9472008981829582
:10011000807F8BBB0E9472000F90CF91DF9108957A
:10012000DF93CF930F92CDB7DEB791E09BBB9BB32C
:1001300092709BBB982F907F91609BBB89830E949C
:10014000720089818295807F81608BBB0E947200E2
:100150000F90CF91DF910895FF920F931F93CF934C
:10016000DF938C0181E08BBB8BB382708BBBFF2450
:1001700014C08F2D803119F480EC0E9478008881A2
:10018000807F81608BBB0E94720088818295807F16
:1001900081608BBB0E947200F394E801CF0DD11DEA
:1001A0008881882331F7DF91CF911F910F91FF90C4
:1001B000089580580E947800089580540E94780025
:1001C0000895893021F40E94900089E006C08A30A9
:1001D00021F480E00E94DD0008950E9490000895BF
:1001E000FF920F931F93082F64E60E94CD01182FF2
:1001F000682F70E04CE95FEF649F9001659F300DC0
:10020000749F300D1124200F311DC9016AE070E088
:100210000E94D901F62E812F805D0E94E1008F2D72
:10022000805D0E94E100005D8CE9189F102D112473
:10023000010F86EFF89E802D1124800F0E94E100AF
:100240001F910F91FF90089580911A018BBB089523
:1002500007C02CEC3CE0000021503040E1F7019752
:100260000097B9F708958BB380931A018FEF8ABB7B
:100270008FE090E00E9428018BB384708BBB80E2FA
:100280008BBB81E00E9478008FE00E94780082E0C2
:100290000E94780080E80E9478008FE090E00E9441
:1002A00028010895EF92FF920F931F93DF93CF934E
:1002B000CDB7DEB728970FB6F894DEBF0FBECDBF1F
:1002C000DE011196EFE0F1E088E001900D9281509F
:1002D000E1F70E94330181E00E9478008FEF99E6F8
:1002E000A8E181509040A040E1F700C0000080E804
:1002F0000E94780081E00E9490008CE00E947800CB
:100300008FEF99E6A8E181509040A040E1F700C04E
:10031000000080E50E9478008E010F5F1F4F89E08A
:10032000E82EF12CEC0EFD1ED8018D918D010E945E
:1003300090000E151F05C1F78FEF99E6A8E18150D7
:100340009040A040E1F700C0000080EC0E947800DF
:1003500080E30E94900080E00E94900081E00E9473
:10036000900082E00E94900081E00E94780081E489
:100370000E94900080E091E00E94AC0080E090E05C
:1003800028960FB6F894DEBF0FBECDBFCF91DF9198
:100390001F910F91FF90EF900895991B79E004C091
:1003A000991F961708F0961B881F7A95C9F78095B4
:1003B000089597FB092E07260AD077FD04D00CD0AC
:1003C00006D000201AF4709561957F4F0895F6F7D6
:1003D000909581959F4F0895AA1BBB1B51E107C0C3
:1003E000AA1FBB1FA617B70710F0A61BB70B881FC5
:1003F000991F5A95A9F780959095BC01CD01089554
:04040000F894FFCF9E
:1004040054686973206973206120746573740000F3
:080414000A0004000A040000C4
:00000001FF
