:100000000C9446000C9450000C9450000C9450003A
:100010000C9450000C9450000C9450000C94500020
:100020000C9450000C9450000C9450000C94500010
:100030000C9450000C9450000C9450000C94500000
:100040000C9450000C9450000C9450000C945000F0
:100050000C9450000C9450000C9450000C945000E0
:100060000C9450000C9450000C9450000C945000D0
:100070000C9450000C9450000C9450000C945000C0
:100080000C9450000C9450000C94500011241FBE8E
:10009000CFEFD0E1DEBFCDBF0E9456000C947800B8
:1000A0000C9400008FEF84BB85BB0895DF93CF9342
:1000B00000D00F92CDB7DEB78FEF84BB85BB19821E
:1000C00010C01B821A8205C08A819B8101969B8386
:1000D0008A838A819B8180569A4EB0F389818F5F93
:1000E000898389818A3068F3FA9A85B38095E6CF4F
:0400F000F894FFCFB2
:00000001FF
