:100000000C9446000C945B000C945B000C945B0019
:100010000C945B000C945B000C945B000C945B00F4
:100020000C945B000C945B000C945B000C945B00E4
:100030000C945B000C945B000C945B000C945B00D4
:100040000C945B000C945B000C945B000C945B00C4
:100050000C945B000C945B000C945B000C945B00B4
:100060000C945B000C945B000C945B000C945B00A4
:100070000C945B000C945B000C945B000C945B0094
:100080000C945B000C945B000C945B0011241FBE6D
:10009000CFEFD0E1DEBFCDBF11E0A0E0B1E0E0E501
:1000A000F3E002C005900D92AE31B107D9F70E947E
:1000B00076010C94A6010C9400001092900087E643
:1000C00089B986E0809395008AB188618AB90895DC
:1000D0005D9BFECF8CB90895EF92FF92CF93DF9393
:1000E000E82EE7017E01F92EE70102C00E946800B8
:1000F00089918823D9F7DF91CF91FF90EF900895F0
:10010000EF92FF920F931F93DF93CF9300D000D015
:100110000F92CDB7DEB7FE0132968E01095F1F4FF9
:100120002AE030E0B9010E9492018193CB01E017EF
:10013000F107C1F78E01095F1F4F7E010894E11C92
:10014000F11C0894E11CF11CF80182918F01805D83
:100150000E9468000E151F05B9F70F900F900F90C1
:100160000F900F90CF91DF911F910F91FF90EF9023
:1001700008955F9BFECF8CB10895EF92FF920F938D
:100180001F93DF93CF930F92CDB7DEB7482F592F30
:100190007A0190E0870199830E94B900F701819369
:1001A0007F0199818D3019F4F801108203C09F5F9F
:1001B000943681F70F90CF91DF911F910F91FF90AF
:1001C000EF9008951092980087E680939900EDE9EA
:1001D000F0E0808186608083EAE9F0E080818861D8
:1001E0008083089590919B0095FFFCCF80939C00A5
:1001F0000895EF92FF92CF93DF93E82EE7017E01FF
:10020000F92EE70102C00E94F20089918823D9F7F4
:10021000DF91CF91FF90EF900895EF92FF920F93AF
:100220001F93DF93CF9300D000D00F92CDB7DEB7EE
:10023000FE0132968E010A5F1F4F2AE030E0B901BD
:100240000E9492018193CB01E017F107C1F78E0163
:100250000A5F1F4F7E010894E11CF11C0894E11C09
:10026000F11CF80182918F01805D0E94F2000E1551
:100270001F05B9F70F900F900F900F900F90CF912F
:10028000DF911F910F91FF90EF90089580919B0057
:1002900087FFFCCF80919C0008950F931F93CF930D
:1002A000DF93C0E0D0E08E010E94460188830E9467
:1002B000F20089918D3061F480E091E0F801808353
:1002C0008AE00E94F20085E091E00E94F90003C0FC
:1002D000C436D10541F780E090E0DF91CF911F91C6
:1002E0000F9108950E94460180530895EF92FF9266
:1002F000CF93DF930E94E200109200000E944D0114
:10030000E82EE7017E01F92EE70102C00E94F2000B
:1003100089918823D9F780E090E0DF91CF91FF9019
:10032000EF900895AA1BBB1B51E107C0AA1FBB1F7A
:10033000A617B70710F0A61BB70B881F991F5A9571
:10034000A9F780959095BC01CD010895F894FFCF51
:100350004E554C4C004E756C6C2061646465642095
:0E0360007375636365737366756C6C7900006A
:00000001FF
