:100000000C9446000C9463000C9463000C94630001
:100010000C9463000C9463000C9463000C946300D4
:100020000C9463000C9463000C9463000C946300C4
:100030000C9463000C9463000C9463000C946300B4
:100040000C9463000C9463000C9463000C946300A4
:100050000C9463000C9463000C9463000C94630094
:100060000C9463000C9463000C9463000C94630084
:100070000C9463000C9463000C9463000C94630074
:100080000C9463000C9463000C94630011241FBE55
:10009000CFEFD0E1DEBFCDBF11E0A0E0B1E0E4ECF6
:1000A000F7E002C005900D92A636B107D9F711E02E
:1000B000A6E6B1E001C01D92A936B107E1F70E94A2
:1000C00098020C94E0030C9400001092980087E6CC
:1000D00080939900EDE9F0E0808186608083EAE911
:1000E000F0E0808188618083089590919B0095FF66
:1000F000FCCF80939C000895EF92FF92CF93DF9303
:10010000E82EE7017E01F92EE70102C00E9475008A
:1001100089918823D9F7DF91CF91FF90EF900895CF
:10012000EF92FF920F931F93DF93CF9300D000D0F5
:100130000F92CDB7DEB7FE0132968E010A5F1F4FD8
:100140002AE030E0B9010E94B9038193CB01E017A6
:10015000F107C1F78E010A5F1F4F7E010894E11C71
:10016000F11C0894E11CF11CF80182918F01805D63
:100170000E9475000E151F05B9F70F900F900F9094
:100180000F900F90CF91DF911F910F91FF90EF9003
:10019000089580919B0087FFFCCF80919C0008957B
:1001A000EF92FF920F931F93DF93CF930F92CDB7F0
:1001B000DEB7482F592F7A0190E0870199830E947A
:1001C000C900F70181937F0199818D3019F4F801FD
:1001D000108203C09F5F9A3081F70F90CF91DF911B
:1001E0001F910F91FF90EF900895EF92FF920F9360
:1001F0001F93DF93CF93CDB7DEB764970FB6F89414
:10020000DEBF0FBECDBF7E010894E11CF11C00E0F3
:1002100010E00E94C90090E0C097F701819391938C
:100220007F018D30910529F00F5F1F4F0A301105B6
:1002300081F701501040C801880F991FFE013196C7
:10024000E80FF91F208131810150104081E090E0DA
:1002500017C0AC01440F551F63E0880F991F6A95C2
:10026000E1F7840F951F72916291869FA001879F8D
:10027000500D969F500D1124240F351F0150104032
:100280001016110634F3C90164960FB6F894DEBF58
:100290000FBECDBFCF91DF911F910F91FF90EF90D7
:1002A00008952091660190E002C09F5F2AE09817B0
:1002B000E0F320936601909367010895DA9A8AEF3C
:1002C0000E945101DA980895DF93CF930F92CDB732
:1002D000DEB79BB394709BBB982F907F9BBB8983A9
:1002E0000E945E0189818295807F8BBB0E945E01A6
:1002F0000F90CF91DF910895DF93CF930F92CDB7F9
:10030000DEB791E09BBB9BB392709BBB982F907F15
:1003100091609BBB89830E945E0189818295807F69
:1003200081608BBB0E945E010F90CF91DF91089599
:10033000FF920F931F93CF93DF938C0181E08BBBD0
:100340008BB382708BBBFF2414C08F2D803119F4C6
:1003500080EC0E9464018881807F81608BBB0E9459
:100360005E0188818295807F81608BBB0E945E01E7
:10037000F394E801CF0DD11D8881882331F7DF91F7
:10038000CF911F910F91FF90089580580E946401B2
:10039000089580540E9464010895893021F40E94D8
:1003A0007C0189E006C08A3021F480E00E94C90106
:1003B00008950E947C010895FF920F931F93082FC8
:1003C00064E60E94AD03182F682F70E04CE95FEFE0
:1003D000649F9001659F300D749F300D1124200F94
:1003E000311DC9016AE070E00E94CD03F62E812F15
:1003F000805D0E94CD018F2D805D0E94CD01005D4A
:100400008CE9189F102D1124010F86EFF89E802D86
:100410001124800F0E94CD011F910F91FF9008952C
:10042000809168018BBB089507C02CEC3CE0000074
:1004300021503040E1F701970097B9F708958BB349
:10044000809368018FEF8ABB8FE090E00E941402D6
:100450008BB384708BBB80E28BBB81E00E94640114
:100460008FE00E94640182E00E94640180E80E94A3
:1004700064018FE090E00E9414020895E199FECF9C
:100480009FBB8EBB6DBBE29AE19A0895E199FECFC6
:100490009FBB8EBBE09A8DB308950F931F93DF939C
:1004A000CF9300D0CDB7DEB78C0180E090E06983B8
:1004B0007A830E9490008AE00E9475006981E62F8D
:1004C0007A81F72F80E090E0AF01480F591F080FA5
:1004D000191F0DC0E199FECFD8018C9190E09FBB10
:1004E0008EBBDA018D91AD018DBBE29AE19A9F013D
:1004F0008191882379F7F90110820F900F90CF91A5
:10050000DF911F910F910895282F392FD901862F40
:10051000972FFC0120E0E199FECF8D9190E09FBBE9
:100520008EBBE09A8DB381932F5F2730A1F708959A
:100530004F925F927F928F929F92AF92BF92CF9293
:10054000DF92EF92FF920F931F93DF93CF93CDB77C
:10055000DEB7C250D2400FB6F894DEBF0FBECDBF9B
:1005600084E090E09A8389830E941F0281E00E94C8
:10057000640180E80E94640180E091E00E9498019B
:1005800080EC0E94640187E091E00E9498016FEF87
:100590007BE782E9615070408040E1F700C00000D5
:1005A00081E00E94640180E80E9464018AE191E098
:1005B0000E9498018FEF97EAA1E681509040A040F9
:1005C000E1F700C0000081E00E94640180E80E9421
:1005D00064018BE291E00E94980180EC0E9464012A
:1005E00083E391E00E9498016FEF77EA81E6615022
:1005F00070408040E1F700C000000E94650081E08B
:100600000E94640180E80E9464018EE391E00E94F0
:10061000980180EC0E94640188E491E00E949801B6
:100620008FEF97EAA1E681509040A040E1F700C02B
:10063000000081E00E94640180E80E94640186E578
:1006400091E00E94980180EC0E94640100E010E0BB
:100650006FEF76E181E1615070408040E1F700C0CA
:1006600000008FEF0E947C010F5F1F4F00311105CA
:1006700079F781E00E94640180E80E94640153E000
:10068000E52EF12CEC0EFD1E00E010E0C8010E94EA
:100690004602D7018D937D010F5F1F4FB2E00030FE
:1006A0001B07A1F78E010D5F1F4F80E090E0DC017A
:1006B00043E0842E9924939435E0A32E21E1B22EB9
:1006C00029813A812115310509F43AC07FB6F894A1
:1006D000E199FECF9C01FC0180926800E895409171
:1006E000680040FDFCCFE12CF1E0FF2EE20EF31E8E
:1006F0002901A801FA016081D180CC24F601E60F1E
:10070000F11DBF014E5F5F4FF2010B019092680037
:10071000E895112462E070E0460E571E4E145F0407
:1007200049F700501F4FF901A0926800E895209109
:10073000680020FDFCCFB0926800E8957FBE02C043
:100740000C94000029813A81215030403A8329835A
:1007500080589F4FAF4FBF4FB3CF991B79E004C074
:10076000991F961708F0961B881F7A95C9F78095F0
:100770000895AA1BBB1B51E107C0AA1FBB1FA617E8
:10078000B70710F0A61BB70B881F991F5A95A9F73A
:1007900080959095BC01CD01089597FB092E072601
:1007A0000AD077FD04D0E5DF06D000201AF470955A
:1007B00061957F4F0895F6F7909581959F4F089525
:0407C000F894FFCFDB
:1007C400435553544F4D00424F4F544C4F414445B1
:1007D400522050524F4A45435400426F6F74696E21
:1007E400672041544D4547413634004C43445B4FE8
:1007F4004B5D0031362A322C342062697400554135
:100804005254315B4F4B5D00393630306270732C7B
:100814005478265278006C6F6164696E6720417069
:06082400702E2E2E0000D4
:00000001FF
