:100000000C9446000C945B000C945B000C945B0019
:100010000C945B000C945B000C945B000C945B00F4
:100020000C945B000C945B000C945B000C945B00E4
:100030000C945B000C945B000C945B000C945B00D4
:100040000C945B000C945B000C945B000C945B00C4
:100050000C945B000C945B000C945B000C945B00B4
:100060000C945B000C945B000C945B000C945B00A4
:100070000C945B000C945B000C945B000C945B0094
:100080000C945B000C945B000C945B0011241FBE6D
:10009000CFEFD0E1DEBFCDBF11E0A0E0B1E0E2E6FE
:1000A000F1E002C005900D92A832B107D9F70E9485
:1000B00090000C94AF000C9400001092980087E61A
:1000C0008093990088E180939A008EE080939D0050
:1000D0000895909398008093990088E180939A0006
:1000E0008EE080939D00089580919B0087FFFCCF58
:1000F00080919C000895982F80919B0085FFFCCFF4
:1001000090939C000895FC0107C080919B0085FF9F
:10011000FCCF319690939C0090819923B1F708957C
:100120001092980087E68093990088E180939A0066
:100130008EE080939D0080E091E00E94830081B377
:100140008F7381BB879904C08EE091E00E94830089
:100150008699F8CF8BE191E00E948300F3CFF89469
:02016000FFCFCF
:100162000A0D205354415254204D41494E000A5326
:1001720057312050524553534544000A53573220B9
:0801820050524553534544005F
:00000001FF
