:100000000C9446000C945B000C945B000C945B0019
:100010000C945B000C945B000C945B000C945B00F4
:100020000C945B000C945B000C945B000C945B00E4
:100030000C945B000C945B000C945B000C945B00D4
:100040000C945B000C945B000C945B000C945B00C4
:100050000C945B000C945B000C945B000C945B00B4
:100060000C945B000C945B000C945B000C945B00A4
:100070000C945B000C945B000C945B000C945B0094
:100080000C945B000C945B000C945B0011241FBE6D
:10009000CFEFD0E1DEBFCDBF11E0A0E0B1E0EAE0FC
:1000A000F2E002C005900D92AA34B107D9F70E9480
:1000B000D2000C9403010C9400001092980087E683
:1000C00080939900EDE9F0E0808186608083EAE921
:1000D000F0E08081886180830895982F80919B0053
:1000E00085FFFCCF90939C000895FC0107C0809190
:1000F0009B0085FFFCCF90939C00319690819923C3
:10010000B1F70895DF93CF9300D000D00F92CDB711
:10011000DEB76AE070E00E94EF008A83FE0132964B
:100120009E012F5F3F4F908180919B0085FFFCCF08
:10013000905D90939C0031972E173F07A1F70F9089
:100140000F900F900F900F90CF91DF9108958091B5
:100150009B0087FFFCCF80919C000895FC0120E06C
:1001600030E080919B0087FFFCCF80919C008083D2
:100170008D3011F4108208952F5F3F4F3196243651
:10018000310579F7089580919B0087FFFCCF80911E
:100190009C008053089581B5886181BD81B58760D9
:1001A00081BD0895CF93DF930E945D0080E091E0D0
:1001B0000E94750081B5886181BD81B5876081BD70
:1001C000C0E9D1E08DE291E00E94750080EF95E5F5
:1001D000FE013197F1F70197D9F7A895F3CFAA1B44
:1001E000BB1B51E107C0AA1FBB1FA617B70710F022
:1001F000A61BB70B881F991F5A95A9F78095909554
:0A020000BC01CD010895F894FFCF72
:10020A000A636F6E74726F6C6C6572206973207208
:10021A00657365742E2E6D61696E2070726F6772D8
:10022A00616D207374617274732E2E0A000A7764EA
:10023A00742072657365742E2E2E2E696E2077686F
:0A024A00696C65206C6F6F70000096
:00000001FF
