:100000000C9446000C945B000C945B000C945B0019
:100010000C945B000C945B000C945B000C945B00F4
:100020000C945B000C945B000C945B000C945B00E4
:100030000C945B000C945B000C945B000C945B00D4
:100040000C945B000C945B000C945B000C945B00C4
:100050000C945B000C945B000C945B000C945B00B4
:100060000C945B000C945B000C945B000C945B00A4
:100070000C945B000C945B000C945B000C945B0094
:100080000C945B000C945B000C945B0011241FBE6D
:10009000CFEFD0E1DEBFCDBF11E0A0E0B1E0ECEFEB
:1000A000F2E002C005900D92AA31B107D9F70E9483
:1000B000ED000C947C010C9400001092980087E6EF
:1000C00080939900EDE9F0E0808186608083EAE921
:1000D000F0E08081886180830895982F80919B0053
:1000E00085FFFCCF90939C000895FC0107C0809190
:1000F0009B0085FFFCCF90939C00319690819923C3
:10010000B1F70895DF93CF9300D000D00F92CDB711
:10011000DEB76AE070E00E9468018A83FE013296D1
:100120009E012F5F3F4F908180919B0085FFFCCF08
:10013000905D90939C0031972E173F07A1F70F9089
:100140000F900F900F900F90CF91DF9108958091B5
:100150009B0087FFFCCF80919C000895FC0120E06C
:1001600030E080919B0087FFFCCF80919C008083D2
:100170008D3011F4108208952F5F3F4F3196243651
:10018000310579F7089580919B0087FFFCCF80911E
:100190009C0080530895E199FECF9FBB8EBB6DBB41
:1001A000E29AE19A0895E199FECF9FBB8EBBE09A57
:1001B0008DB30895DC01FB0120E0E199FECF8C9125
:1001C00090E09FBB8EBBE09A8DB380832F5F27307A
:1001D00019F011963196F1CF08950F931F93DF9385
:1001E000CF9300D000D000D0CDB7DEB70E945D0025
:1001F00080E091E00E94750080E091E061E40E945F
:10020000CB00E199FECF80E091E09FBB8EBBE09AEE
:100210009DB380919B0085FFFCCF90939C008091C3
:100220009B0085FFFCCF8AE080939C0080E092E0F9
:100230008E010F5F1F4FB8010E94DA00C8010E94B3
:10024000750080E090E026960FB6F894DEBF0FBEF2
:10025000CDBFCF91DF911F910F910895FF920F9322
:100260001F93CF93DF93182F092FEB01FB01019010
:100270000020E9F73197E61BF70BFE2E8E2F90E05A
:100280000E94820080919B0085FFFCCF8AE08093D2
:100290009C00212F302FC901DC0120E030E00FC08D
:1002A000E199FECF8D9190E09FBB8EBBFE01E20FE6
:1002B000F31F80818DBBE29AE19A2F5F3F4F2F158C
:1002C00078F31882DF91CF911F910F91FF900895DD
:1002D000AA1BBB1B51E107C0AA1FBB1FA617B7076C
:1002E00010F0A61BB70B881F991F5A95A9F7809588
:0C02F0009095BC01CD010895F894FFCF5B
:1002FC00756172742068617320696E697469616CD0
:0A030C00697A65642E2E2E0A0000A7
:00000001FF
