:100000000C9446000C9465000C9465000C946500FB
:100010000C9465000C9465000C9465000C946500CC
:100020000C9465000C9465000C9465000C946500BC
:100030000C9465000C9465000C9465000C946500AC
:100040000C9465000C9465000C9465000C9465009C
:100050000C9465000C9465000C9465000C9465008C
:100060000C9465000C9465000C9465000C9465007C
:100070000C9465000C9465000C9465000C9465006C
:100080000C9465000C9465000C94650011241FBE4F
:10009000CFEFD0E1DEBFCDBF11E0A0E0B1E0EEE4F4
:1000A000F2E000E00BBF02C007900D92A233B1074F
:1000B000D9F711E0A2E3B1E001C01D92A233B1076C
:1000C000E1F70E94E4000C9425010C9400001092CA
:1000D000980087E680939900EDE9F0E080818660E2
:1000E0008083EAE9F0E08081886180830895982F19
:1000F00080919B0085FFFCCF90939C000895FC01AC
:1001000007C080919B0085FFFCCF90939C003196A7
:1001100090819923B1F70895DF93CF9300D000D059
:100120000F92CDB7DEB76AE070E00E9411018A83BA
:10013000FE0132969E012F5F3F4F908180919B0080
:1001400085FFFCCF905D90939C0031972E173F0761
:10015000A1F70F900F900F900F900F90CF91DF911C
:10016000089580919B0087FFFCCF80919C000895AB
:10017000FC0120E030E080919B0087FFFCCF809164
:100180009C0080838D3011F4108208952F5F3F4FC3
:1001900031962436310579F7089580919B0087FFC9
:1001A000FCCF80919C0080530895E199FECF9FBBC6
:1001B0008EBB6DBBE29AE19A0895E199FECF9FBB99
:1001C0008EBBE09A8DB308951092980087E68093D5
:1001D000990080919D00866080939D0080919A0097
:1001E000886180939A00E0E0F1E007C080919B0075
:1001F00085FFFCCF90939C00319690819923B1F7B5
:10020000E199FECF80E092E09FBB8EBBE09A9DB368
:1002100080919B0085FFFCCF90939C0080E090E054
:100220000895AA1BBB1B51E107C0AA1FBB1FA6173D
:10023000B70710F0A61BB70B881F991F5A95A9F78F
:0E02400080959095BC01CD010895F894FFCFF4
:10024E005465737420636F646520666F7220454534
:10025E0050524F4D2072656164202D207772697463
:10026E0065206F7065726174696F6E732E2E2E0A23
:02027E0000007E
:00000001FF
