:100000000C9446000C9463000C9463000C94630001
:100010000C9463000C9463000C9463000C946300D4
:100020000C9463000C9463000C9463000C946300C4
:100030000C9463000C9463000C9463000C946300B4
:100040000C9463000C9463000C944E010C946300B8
:100050000C9463000C9463000C9463000C94630094
:100060000C9463000C9463000C9463000C94630084
:100070000C9463000C9463000C9439010C9463009D
:100080000C9463000C9463000C94630011241FBE55
:10009000CFEFD0E1DEBFCDBF11E0A0E0B1E0E6E6FA
:1000A000F3E002C005900D92AE30B107D9F711E030
:1000B000AEE0B1E001C01D92AE30B107E1F70E94A1
:1000C0005D010C94B1010C9400001092980087E639
:1000D00080939900EDE9F0E0808186608083EAE911
:1000E000F0E08081886980830895982F80919B003B
:1000F00085FFFCCF90939C000895FC0107C0809180
:100100009B0085FFFCCF90939C00319690819923B2
:10011000B1F70895DF93CF9300D000D00F92CDB701
:10012000DEB76AE070E00E949D018A83FE0132968C
:100130009E012F5F3F4F908180919B0085FFFCCFF8
:10014000905D90939C0031972E173F07A1F70F9079
:100150000F900F900F900F90CF91DF9108958091A5
:100160009B0087FFFCCF80919C000895FC0120E05C
:1001700030E080919B0087FFFCCF80919C008083C2
:100180008D3011F4108208952F5F3F4F3196243641
:10019000310579F7089580919B0087FFFCCF80910E
:1001A0009C00805308951092900087E689B986E0FC
:1001B000809395008AB188698AB908955D9BFECFC6
:1001C0008CB90895FC0104C05D9BFECF8CB93196BB
:1001D00080818823C9F708950F931F93DF93CF93EE
:1001E00000D000D00F92CDB7DEB7382F292FFE01F7
:1001F00032968E01095F1F4F832F922F6AE070E0C5
:100200000E949D018193832F922F6AE070E00E94EB
:100210009D01362F272FE017F10771F7FE01369663
:100220009E012F5F3F4F80815D9BFECF805D8CB92B
:1002300031972E173F07B9F70F900F900F900F903F
:100240000F90CF91DF911F910F9108955F9BFECF8B
:100250008CB10895FC0190E05F9BFECF8CB1808350
:100260008D3011F4108208959F5F31969436A1F776
:1002700008951F920F920FB60F9211248F93EF9350
:10028000FF93ECE9F0E0808180838CB9FF91EF91DE
:100290008F910F900FBE0F901F9018951F920F9285
:1002A0000FB60F9211248F938CB180939C008F9185
:1002B0000F900FBE0F901F90189578941092980091
:1002C00097E69093990080919D00866080939D00B1
:1002D00080919A00886980939A001092900099B951
:1002E00086E0809395008AB188698AB9E0E0F1E000
:1002F00004C05D9BFECF8CB9319680818823C9F7FD
:1003000080E197E220E931E0F9013197F1F70197B7
:10031000D9F7E4E0F1E004C05D9BFECF8CB93196E3
:1003200080818823C9F780E197E220E931E0F90173
:100330003197F1F70197D9F7FFCFAA1BBB1B51E10A
:1003400007C0AA1FBB1FA617B70710F0A61BB70B45
:10035000881F991F5A95A9F780959095BC01CD01EA
:060360000895F894FFCFA0
:0E0366002B2B2B004154444E2052484F0D00CB
:00000001FF
