:100000000C9446000C9463000C9463000C94630001
:100010000C9463000C9463000C9463000C946300D4
:100020000C9463000C9463000C9463000C946300C4
:100030000C9463000C9463000C9463000C946300B4
:100040000C9463000C9463000C9463000C946300A4
:100050000C9463000C9463000C9463000C94630094
:100060000C9463000C9463000C9463000C94630084
:100070000C9463000C9463000C9463000C94630074
:100080000C9463000C9463000C94630011241FBE55
:10009000CFEFD0E1DEBFCDBF11E0A0E0B1E0E8E7F7
:1000A000F4E002C005900D92AA31B107D9F711E032
:1000B000AAE1B1E001C01D92AD31B107E1F70E94A4
:1000C000F5010C943A020C9400001092980087E617
:1000D00080939900EDE9F0E0808186608083EAE911
:1000E000F0E080818861808308951092900087E617
:1000F00089B9E5E9F0E08081866080838AB1886112
:100100008AB90895982F80919B0085FFFCCF90932A
:100110009C000895FC0107C080919B0085FFFCCFE7
:10012000319690939C0090819923B1F70895DF93C5
:10013000CF9300D000D00F92CDB7DEB79C016AE01C
:1001400070E00E9413028A83C9016AE070E00E9495
:1001500013029B01CB016AE070E00E9413028B83C3
:10016000C9016AE070E00E9413029B01CB016AE0C2
:1001700070E00E9413028C83C9016AE070E00E9463
:100180001302CB016AE070E00E9413028D83FE012E
:1001900035969E012F5F3F4F908180919B0085FF98
:1001A000FCCF905D90939C0031972E173F07A1F7ED
:1001B0000F900F900F900F900F90CF91DF910895B7
:1001C00080919B0087FFFCCF80919C000895FC01EB
:1001D00090E080919B0087FFFCCF80919C00808302
:1001E0008D3011F4108208959F5F3196943689F70F
:1001F0000895AC0130911A0120E002C02F5F3AE06F
:10020000822F90E084179507C8F330931A0120934A
:100210001B01089584E690E00E94F900DA9A84E6D2
:1002200090E00E94F900DA9808951F93182FDA9849
:100230008BB3912F907F8870982B9BBB0E940A01F3
:100240008BB31295107F8870812B8BBB0E940A01A3
:100250001F9108951F93182F8BB3912F907F887053
:10026000982B9BBBD89A0E940A018BB31295107FE2
:100270008870812B8BBBD89A0E940A011F91089528
:10028000EF92FF921F93CF93DF937C01DA9810E0F7
:1002900019C0103119F480EC0E9415019BB38881BC
:1002A000807F9870892B8BBBD89A0E940A019BB3E0
:1002B00088818295807F9870892B8BBBD89A0E9409
:1002C0000A011F5FE701C10FD11D8881882309F74B
:1002D000DF91CF911F91FF90EF90089580580E9479
:1002E0001501089580540E9415010895893029F45C
:1002F00080E20E942A0180E206C08A3021F480E078
:100300000E94720108950E942A010895EF92FF92BF
:100310000F931F93182F64E60E940702482F282F7F
:1003200030E08CE99FEF289F7001299FF00C389FE7
:10033000F00C1124C701810F911D6AE070E00E944A
:100340002702062F842F805D0E947601802F805D1A
:100350000E947601105D1E0D86EF9FEF089F002D15
:100360001124802F810F0E9476011F910F91FF9021
:10037000EF90089580911C018BBB08950AC020E086
:1003800030E000002F5F3F4F4CE02C3C3407C9F7B2
:1003900001970097A1F708958BB380931C018FEF0D
:1003A0008ABB8FE090E00E94BE0183E00E941501AD
:1003B0008DE290E00E94BE0182E00E9415018FE074
:1003C00090E00E94BE01DA9881E00E9415018FE062
:1003D0000E94150182E00E94150180E80E9415012B
:1003E0008FE090E00E94BE0108950E94650080E0C9
:1003F00091E00E948A000E94CC0181E40E942A01BF
:1004000080919B0087FFFCCF80919C00F7CF991BC8
:1004100079E004C0991F961708F0961B881F7A95FB
:10042000C9F780950895AA1BBB1B51E107C0AA1FFD
:10043000BB1FA617B70710F0A61BB70B881F991F85
:100440005A95A9F780959095BC01CD01089597FB29
:10045000092E07260AD077FD04D0E5DF06D000205C
:100460001AF4709561957F4F0895F6F790958195F0
:080470009F4F0895F894FFCF9F
:10047800756172742068617320696E697469616C52
:0A048800697365642E2E2E2E0A0003
:00000001FF
