:100000000C9446000C9463000C9463000C94630001
:100010000C9463000C9463000C9463000C946300D4
:100020000C9463000C9463000C9463000C946300C4
:100030000C9463000C9463000C9463000C946300B4
:100040000C9463000C9463000C9463000C946300A4
:100050000C9463000C9463000C9463000C94630094
:100060000C9463000C9463000C9463000C94630084
:100070000C9463000C9463000C9463000C94630074
:100080000C9463000C9463000C94630011241FBE55
:10009000CFEFD0E1DEBFCDBF11E0A0E0B1E0E6EDF3
:1000A000F4E002C005900D92AA31B107D9F711E032
:1000B000AAE1B1E001C01D92AD31B107E1F70E94A4
:1000C00022020C9469020C9400001092980087E6BA
:1000D00080939900EDE9F0E0808186608083EAE911
:1000E000F0E08081886180830895982F80919B0043
:1000F00085FFFCCF90939C000895FC0107C0809180
:100100009B0085FFFCCF90939C00319690819923B2
:10011000B1F70895DF93CF9300D000D00F92CDB701
:10012000DEB79C016AE070E00E9442028A83C90146
:100130006AE070E00E9442029B01CB016AE070E03D
:100140000E9442028B83C9016AE070E00E94420271
:100150009B01CB016AE070E00E9442028C83C901DE
:100160006AE070E00E944202CB016AE070E00E9407
:1001700042028D83FE0135969E012F5F3F4F908195
:1001800080919B0085FFFCCF905D90939C00319700
:100190002E173F07A1F70F900F900F900F900F9021
:1001A000CF91DF91089580919B0087FFFCCF8091D4
:1001B0009C000895FC0120E030E080919B0087FFC7
:1001C000FCCF80919C0080838D3011F410820895C3
:1001D0002F5F3F4F31962436310579F7089580918E
:1001E0009B0087FFFCCF80919C0080530895AC0159
:1001F00030911A0120E002C02F5F3AE0822F90E098
:1002000084179507C8F330931A0120931B010895B2
:1002100084E690E00E94F700DA9A84E690E00E947B
:10022000F700DA9808951F93182FDA988BB3912F5F
:10023000907F8870982B9BBB0E9408018BB312950E
:10024000107F8870812B8BBB0E9408011F9108953D
:100250001F93182F8BB3912F907F8870982B9BBB87
:10026000D89A0E9408018BB31295107F8870812B59
:100270008BBBD89A0E9408011F910895EF92FF92BC
:100280001F93CF93DF937C01DA9810E019C01031EF
:1002900019F480EC0E9413019BB38881807F9870D1
:1002A000892B8BBBD89A0E9408019BB388818295C9
:1002B000807F9870892B8BBBD89A0E9408011F5FA2
:1002C000E701C10FD11D8881882309F7DF91CF9104
:1002D0001F91FF90EF90089580580E941301089598
:1002E00080540E9413010895893029F480E20E940D
:1002F000280180E206C08A3021F480E00E9470016B
:1003000008950E9428010895EF92FF920F931F9382
:10031000182F64E60E943602482F282F30E08CE91F
:100320009FEF289F7001299FF00C389FF00C11243B
:10033000C701810F911D6AE070E00E945602062FEE
:10034000842F805D0E947401802F805D0E94740163
:10035000105D1E0D86EF9FEF089F002D1124802F4A
:10036000810F0E9474011F910F91FF90EF900895EB
:1003700080911C018BBB08950AC020E030E0000092
:100380002F5F3F4F4CE02C3C3407C9F70197009793
:10039000A1F708958BB380931C018FEF8ABB8FE088
:1003A00090E00E94BC0183E00E9413018DE290E086
:1003B0000E94BC0182E00E9413018FE090E00E9445
:1003C000BC01DA9881E00E9413018FE00E941301C2
:1003D00082E00E94130180E80E9413018FE090E008
:1003E0000E94BC01089587B1806C87B986B1876887
:1003F00086B90895CF93DF93369A349BFECF34B1FC
:1004000025B1922F80E0C32FD0E0C82BD92BCE018D
:100410000E948A0088E893E120E931E0F9013197F0
:10042000F1F70197D9F78C2F0E94840188E893E1B6
:1004300020E931E0F9013197F1F70197D9F7DF9120
:10044000CF91089587B1806C87B986B1876886B9E6
:100450000E94650080E091E00E947D000E94CA0138
:1004600081E40E9428010E94FA01FDCF991B79E0E6
:1004700004C0991F961708F0961B881F7A95C9F734
:1004800080950895AA1BBB1B51E107C0AA1FBB1F83
:10049000A617B70710F0A61BB70B881F991F5A9510
:1004A000A9F780959095BC01CD01089597FB092E81
:1004B00007260AD077FD04D0E5DF06D000201AF425
:1004C000709561957F4F0895F6F7909581959F4FB0
:0604D0000895F894FFCF2F
:1004D600756172742068617320696E697469616CF4
:0A04E600697365642E2E2E2E0A00A5
:00000001FF
