:100000000C9446000C9463000C9463000C94630001
:100010000C9463000C9463000C9463000C946300D4
:100020000C9463000C9463000C9463000C946300C4
:100030000C9463000C9463000C9463000C946300B4
:100040000C9463000C9463000C9463000C946300A4
:100050000C9463000C9463000C9463000C94630094
:100060000C9463000C9463000C9463000C94630084
:100070000C9463000C9463000C9463000C94630074
:100080000C9463000C9463000C94630011241FBE55
:10009000CFEFD0E1DEBFCDBF11E0A0E0B1E0ECEBEF
:1000A000F8E002C005900D92A432B107D9F711E033
:1000B000A4E2B1E001C01D92A432B107E1F70E94B1
:1000C000EF000C945C040C9400008FE083BF8CE97B
:1000D00081BF089594E606B601FEFDCF86B7826023
:1000E00086BF9150C1F708951092980087E68093DB
:1000F0009900EDE9F0E0808186608083EAE9F0E034
:100100008081886180830895982F80919B0085FF6E
:10011000FCCF90939C000895FC0107C080919B0048
:1001200085FFFCCF90939C00319690819923B1F785
:1001300008950F931F93DF93CF9300D000D00F92B9
:10014000CDB7DEB7382F292FFE0132968E01095F19
:100150001F4F832F922F6AE070E00E9470018193FD
:10016000832F922F6AE070E00E947001362F272FB4
:10017000E017F10771F7FE0136969E012F5F3F4FA2
:10018000908180919B0085FFFCCF905D90939C00B7
:1001900031972E173F07A1F70F900F900F900F90F8
:1001A0000F90CF91DF911F910F91089580919B0047
:1001B00087FFFCCF80919C000895FC0190E0809126
:1001C0009B0087FFFCCF80919C0080838D3011F4D1
:1001D000108208959F5F31969A3089F70895AF9203
:1001E000BF92CF92DF92FF920F931F93DF93CF9333
:1001F000CDB7DEB76E970FB6F894DEBF0FBECDBF9A
:100200001092980087E68093990080919D00866007
:1002100080939D0080919A00886180939A00E0E02D
:10022000F1E007C080919B0085FFFCCF90939C007C
:10023000319690819923B1F78FE083BF8CE981BF1C
:10024000FF2400E010E06E010894C11CD11C8EE078
:10025000A82E81E0B82E94E606B601FEFDCF86B743
:10026000826086BF9150C1F7F3948BE38F1510F431
:100270000F5FFF240C3310F01F5F00E0183108F00F
:1002800010E0ADB7BEB71A970FB6F894BEBF0FBE59
:10029000ADBFEDB7FEB731961296DC92CE921197B4
:1002A000B382A2821483158206831782F086118698
:1002B0000E948401F6018DB79EB70A960FB6F89496
:1002C0009EBF0FBE8DBF07C080919B0085FFFCCFF6
:1002D00090939C0031969081992309F4BCCFF4CF80
:1002E000AA1BBB1B51E107C0AA1FBB1FA617B7075C
:1002F00010F0A61BB70B881F991F5A95A9F7809578
:100300009095BC01CD010895AEE0B0E0EAE8F1E0DF
:100310000C9433040D891E8986E08C831A8309832B
:100320008FEF9FE79E838D839E01275E3F4FCE0117
:1003300001966F89788DA9010E94A8012F813885C7
:10034000020F131FF80110822E96E4E00C944F0464
:10035000ABE0B0E0EEEAF1E00C9425043C012B01A7
:100360005A01FC0117821682838181FD03C06FEF61
:100370007FEFC6C19AE0892E1E010894211C311C12
:10038000F3012381F20123FD859123FF81912F0148
:10039000882309F4B2C1853239F423FD859123FF06
:1003A00081912F01853229F490E0B3010E949B03D3
:1003B000E7CF982FFF24EE249924FFE1FF15D0F01A
:1003C0009B3269F09C3228F4903259F0933291F4C8
:1003D0000EC09D3249F0903369F441E024C052E0F0
:1003E000F52A84E0F82A28C098E0F92A25C0E0E13F
:1003F000FE2A22C0F7FC29C0892F80538A3070F46E
:10040000F6FE05C0989C902C1124980E15C0E89C0F
:10041000E02C1124E80EF0E2FF2A0EC09E3229F4EF
:10042000F6FC6BC140E4F42A07C09C3619F450E88E
:10043000F52A02C0983649F4F20123FD959123FF75
:1004400091912F01992309F0B8CF892F85548330DA
:1004500018F08052833038F444E050E0A40EB51E0A
:100460005FE359830FC0933631F0933779F09335BA
:1004700009F056C020C0F5018081898342E050E038
:10048000A40EB51E610101E010E012C0F501C080AC
:10049000D180F6FC03C06FEF7FEF02C0692D70E0E2
:1004A00042E050E0A40EB51EC6010E9490038C01EC
:1004B0005FE7F52214C0F501C080D180F6FC03C0CF
:1004C0006FEF7FEF02C0692D70E042E050E0A40EB4
:1004D000B51EC6010E9485038C0150E8F52AF3FE83
:1004E00007C01AC080E290E0B3010E949B03EA9427
:1004F0008E2D90E008171907A8F30EC0F601F7FC3F
:100500008591F7FE81916F0190E0B3010E949B03FA
:10051000E110EA94015010400115110579F7EAC085
:10052000943611F0993669F5F7FE08C0F50120817F
:1005300031814281538184E090E00AC0F5018081DD
:1005400091819C01442737FD4095542F82E090E033
:10055000A80EB91E9FE6F92257FF09C05095409595
:10056000309521953F4F4F4F5F4FE0E8FE2ACA017B
:10057000B901A1012AE030E00E94C703D82ED218A9
:1005800040C0953729F41F2D1F7E2AE030E01DC0A2
:100590001F2D197F9F3661F0903720F4983509F0B0
:1005A000ACC00FC0903739F0983709F0A6C004C02E
:1005B00028E030E00AC0106114FD146020E130E052
:1005C00004C014FD166020E132E017FF08C0F501F9
:1005D000608171818281938144E050E008C0F5011F
:1005E00080819181BC0180E090E042E050E0A40E67
:1005F000B51EA1010E94C703D82ED2188FE7F82E8E
:10060000F122F6FE0BC05EEFF522D91438F4F4FEA9
:1006100007C0F2FC05C08FEEF82202C01D2D01C0FC
:10062000192DF4FE0DC0FE01ED0DF11D808180330A
:1006300019F499EEF92208C01F5FF2FE05C003C04D
:100640008F2D867809F01F5F0F2DF3FC14C0F0FE8C
:100650000FC01E1510F09D2C0BC09D2C9E0C911AE6
:100660001E2D06C080E290E0B3010E949B031F5F35
:100670001E15C0F304C01E1510F4E11A01C0EE24CB
:1006800004FF0FC080E390E0B3010E949B0302FFD0
:100690001DC001FD03C088E790E00EC088E590E032
:1006A0000BC0802F867891F001FF02C08BE201C061
:1006B00080E2F7FC8DE290E0B3010E949B0306C04C
:1006C00080E390E0B3010E949B039A94D914C0F395
:1006D000DA94F101ED0DF11D808190E0B3010E94EB
:1006E0009B03DD20A9F706C080E290E0B3010E94E1
:1006F0009B03EA94EE20C1F743CEF3016681778134
:10070000CB012B96E2E10C944104FC010590615071
:1007100070400110D8F7809590958E0F9F1F089517
:10072000FC016150704001900110D8F780959095C0
:100730008E0F9F1F08950F931F93CF93DF938C010C
:10074000EB018B8181FF1BC082FF0DC02E813F8199
:100750008C819D812817390764F4E881F981019320
:10076000F983E88306C0E885F985802F0995892BF0
:1007700031F48E819F8101969F838E8302C00FEF9B
:100780001FEFC801DF91CF911F910F910895FA01DA
:10079000AA27283051F1203181F1E8946F936E7FC0
:1007A0006E5F7F4F8F4F9F4FAF4FB1E03ED0B4E0B1
:1007B0003CD0670F781F891F9A1FA11D680F791FF2
:1007C0008A1F911DA11D6A0F711D811D911DA11D03
:1007D00020D009F468943F912AE0269F1124301913
:1007E000305D3193DEF6CF010895462F4770405DAE
:1007F0004193B3E00FD0C9F7F6CF462F4F70405D5D
:100800004A3318F0495D31FD4052419302D0A9F7B7
:10081000EACFB4E0A6959795879577956795BA95B1
:10082000C9F700976105710508959B01AC010A2E77
:1008300006945795479537952795BA95C9F7620F4E
:10084000731F841F951FA01D08952F923F924F92F2
:100850005F926F927F928F929F92AF92BF92CF9250
:10086000DF92EF92FF920F931F93CF93DF93CDB759
:10087000DEB7CA1BDB0B0FB6F894DEBF0FBECDBFD1
:1008800009942A88398848885F846E847D848C84A2
:100890009B84AA84B984C884DF80EE80FD800C81AB
:1008A0001B81AA81B981CE0FD11D0FB6F894DEBF8E
:0C08B0000FBECDBFED010895F894FFCFFE
:1008BC004469676974616C20436C6F636B005469A5
:1008CC006D653A20253032643A253032643A253051
:0408DC0032640A0078
:00000001FF
