:100000000C9446000C9463000C9463000C94630001
:100010000C9463000C9463000C9463000C946300D4
:100020000C9463000C9463000C9463000C946300C4
:100030000C9463000C9463000C9463000C946300B4
:100040000C9463000C9463000C9463000C946300A4
:100050000C9463000C9463000C9463000C94630094
:100060000C9463000C9463000C9463000C94630084
:100070000C9463000C9463000C9463000C94630074
:100080000C9463000C9463000C94630011241FBE55
:10009000CFEFD0E1DEBFCDBF11E0A0E0B1E0E4E4FE
:1000A000F1E002C005900D92A030B107D9F711E040
:1000B000A0E0B1E001C01D92A030B107E1F70E94BD
:1000C00065000C94A0000C9400008FEF84BB40E00E
:1000D00050E03FEFA1E0B0E060E971E015C035BB52
:1000E00025B3CD01042E02C0880F991F0A94E2F7B0
:1000F0008095822385BB80E197E2FB013197F1F780
:100100000197D9F74F5F5F4F4830510544F346E000
:1001100050E035BB25B3CD01042E02C0880F991FD6
:100120000A94E2F78095822385BB80E197E2FB0188
:100130003197F1F70197D9F74150504051F7E4CF8B
:04014000F894FFCF61
:00000001FF
