:100000000C9446000C9463000C9463000C94630001
:100010000C9463000C9463000C9463000C946300D4
:100020000C9463000C9463000C9463000C946300C4
:100030000C9463000C9463000C9463000C946300B4
:100040000C949E010C9463000C9463000C94630068
:100050000C9463000C9463000C9463000C94630094
:100060000C9463000C9463000C9463000C94630084
:100070000C9463000C9463000C9463000C94630074
:100080000C9463000C9463000C94630011241FBE55
:10009000CFEFD0E1DEBFCDBF11E0A0E0B1E0E6EBF5
:1000A000FAE002C005900D92AE32B107D9F711E027
:1000B000AEE2B1E001C01D92A233B107E1F70E94A8
:1000C000E3010C9459050C94000087E083BF81E0A4
:1000D00087BF81EF82BF089581EF82BF089510929C
:1000E000980087E68093990088E180939A008EE0DB
:1000F00080939D000895909398008093990088E1E3
:1001000080939A008EE080939D00089580919B00DB
:1001100087FFFCCF80919C000895982F80919B00D1
:1001200085FFFCCF90939C000895FC0107C080914F
:100130009B0085FFFCCF319690939C009081992382
:10014000B1F70895AC0130912E0120E002C02F5F7D
:100150003AE0822F90E084179507C8F330932E0180
:1001600020932F01089584E690E00E94A200DA9A7D
:1001700084E690E00E94A200DA9808951F93182F59
:10018000DA988BB3912F907F8870982B9BBB0E943D
:10019000B3008BB31295107F8870812B8BBB0E94AC
:1001A000B3001F9108951F93182F8BB3912F907F49
:1001B0008870982B9BBBD89A0E94B3008BB3129582
:1001C000107F8870812B8BBBD89A0E94B3001F913F
:1001D0000895EF92FF921F93CF93DF937C01DA98FB
:1001E00010E019C0103119F480EC0E94BE009BB3DE
:1001F0008881807F9870892B8BBBD89A0E94B3002E
:100200009BB388818295807F9870892B8BBBD89A0D
:100210000E94B3001F5FE701C10FD11D88818823B1
:1002200009F7DF91CF911F91FF90EF9008958058CB
:100230000E94BE00089580540E94BE000895893037
:1002400029F480E20E94D30080E206C08A3021F4C3
:1002500080E00E941B0108950E94D3000895EF9250
:10026000FF920F931F93182F64E60E944E02482FAF
:10027000282F30E08CE99FEF289F7001299FF00C18
:10028000389FF00C1124C701810F911D6AE070E0C6
:100290000E945A02062F842F805D0E941F01802F2A
:1002A000805D0E941F01105D1E0D86EF9FEF089F6D
:1002B000002D1124802F810F0E941F011F910F918B
:1002C000FF90EF900895809130018BBB08950AC094
:1002D00020E030E000002F5F3F4F4CE02C3C340723
:1002E000C9F701970097A1F708958BB38093300168
:1002F0008FEF8ABB8FE090E00E94670183E00E944D
:10030000BE008DE290E00E94670182E00E94BE0084
:100310008FE090E00E946701DA9881E00E94BE00C1
:100320008FE00E94BE0082E00E94BE0080E80E9432
:10033000BE008FE090E00E94670108951F920F9227
:100340000FB60F9211248F939F9380912901909162
:100350002A01019790932A0180932901892B51F555
:1003600087EE93E090932A018093290180912B01DD
:100370008F5F80932B0191E0909331018C33D0F00B
:1003800010922B0180912C018F5F80932C018C3374
:1003900038F080912D018F5F80932D0110922C01F8
:1003A00080912D01883130F010922D0110922C0196
:1003B00010922B0181EF82BF9F918F910F900FBE02
:1003C0000F901F901895EF92FF920F931F93DF935A
:1003D000CF93CDB7DEB764970FB6F894DEBF0FBEEC
:1003E000CDBF1092980087E68093990088E18093B2
:1003F0009A008EE080939D000E94750180E091E05C
:100400000E94950087E083BF81E087BF81EF82BFB4
:1004100078948E010F5F1F4F87E1E82E81E0F82E60
:10042000809131018823C9F18DB79EB70A970FB625
:10043000F8949EBF0FBE8DBFEDB7FEB73196ADB736
:10044000BEB712961C930E931197F382E2828091AD
:100450002D018483158280912C01868317828091DF
:100460002B01808711860E9481028DB79EB70A9664
:100470000FB6F8949EBF0FBE8DBF86E291E00E943A
:100480009500C8010E94950080E00E941701C801F4
:100490000E94E90010923101C3CFFFCF991B79E090
:1004A00004C0991F961708F0961B881F7A95C9F704
:1004B0008095089597FB092E07260AD077FD04D072
:1004C0000CD006D000201AF4709561957F4F0895E6
:1004D000F6F7909581959F4F0895AA1BBB1B51E19C
:1004E00007C0AA1FBB1FA617B70710F0A61BB70BA4
:1004F000881F991F5A95A9F780959095BC01CD0149
:100500000895AEE0B0E0E7E8F2E00C9430050D8924
:100510001E8986E08C831A8309838FEF9FE79E8371
:100520008D839E01275E3F4FCE0101966F89788DA6
:10053000A9010E94A5022F813885020F131FF8011F
:1005400010822E96E4E00C944C05ABE0B0E0EBEAB0
:10055000F2E00C9422053C012B015A01FC011782A8
:100560001682838181FD03C06FEF7FEFC6C19AE0E1
:10057000892E1E010894211C311CF3012381F201F4
:1005800023FD859123FF81912F01882309F4B2C1B6
:10059000853239F423FD859123FF81912F01853226
:1005A00029F490E0B3010E949804E7CF982FFF242C
:1005B000EE249924FFE1FF15D0F09B3269F09C32C4
:1005C00028F4903259F0933291F40EC09D3249F0E4
:1005D000903369F441E024C052E0F52A84E0F82A1F
:1005E00028C098E0F92A25C0E0E1FE2A22C0F7FCE5
:1005F00029C0892F80538A3070F4F6FE05C0989C7C
:10060000902C1124980E15C0E89CE02C1124E80EC3
:10061000F0E2FF2A0EC09E3229F4F6FC6BC140E4E2
:10062000F42A07C09C3619F450E8F52A02C098361F
:1006300049F4F20123FD959123FF91912F01992314
:1006400009F0B8CF892F8554833018F08052833059
:1006500038F444E050E0A40EB51E5FE359830FC0A8
:10066000933631F0933779F0933509F056C020C0B6
:10067000F5018081898342E050E0A40EB51E61013E
:1006800001E010E012C0F501C080D180F6FC03C08B
:100690006FEF7FEF02C0692D70E042E050E0A40EE2
:1006A000B51EC6010E948D048C015FE7F52214C0BF
:1006B000F501C080D180F6FC03C06FEF7FEF02C070
:1006C000692D70E042E050E0A40EB51EC6010E9404
:1006D00082048C0150E8F52AF3FE07C01AC080E2BC
:1006E00090E0B3010E949804EA948E2D90E00817E0
:1006F0001907A8F30EC0F601F7FC8591F7FE81916A
:100700006F0190E0B3010E949804E110EA94015057
:1007100010400115110579F7EAC0943611F09936A9
:1007200069F5F7FE08C0F5012081318142815381CE
:1007300084E090E00AC0F501808191819C0144270A
:1007400037FD4095542F82E090E0A80EB91E9FE639
:10075000F92257FF09C050954095309521953F4F9C
:100760004F4F5F4FE0E8FE2ACA01B901A1012AE01C
:1007700030E00E94C404D82ED21840C0953729F426
:100780001F2D1F7E2AE030E01DC01F2D197F9F36D0
:1007900061F0903720F4983509F0ACC00FC0903765
:1007A00039F0983709F0A6C004C028E030E00AC04C
:1007B000106114FD146020E130E004C014FD1660E7
:1007C00020E132E017FF08C0F5016081718182816C
:1007D000938144E050E008C0F50180819181BC0123
:1007E00080E090E042E050E0A40EB51EA1010E941E
:1007F000C404D82ED2188FE7F82EF122F6FE0BC0D3
:100800005EEFF522D91438F4F4FE07C0F2FC05C0FF
:100810008FEEF82202C01D2D01C0192DF4FE0DC06F
:10082000FE01ED0DF11D8081803319F499EEF9225E
:1008300008C01F5FF2FE05C003C08F2D867809F047
:100840001F5F0F2DF3FC14C0F0FE0FC01E1510F03B
:100850009D2C0BC09D2C9E0C911A1E2D06C080E273
:1008600090E0B3010E9498041F5F1E15C0F304C0FE
:100870001E1510F4E11A01C0EE2404FF0FC080E33E
:1008800090E0B3010E94980402FF1DC001FD03C067
:1008900088E790E00EC088E590E00BC0802F867856
:1008A00091F001FF02C08BE201C080E2F7FC8DE213
:1008B00090E0B3010E94980406C080E390E0B30189
:1008C0000E9498049A94D914C0F3DA94F101ED0DC2
:1008D000F11D808190E0B3010E949804DD20A9F70A
:1008E00006C080E290E0B3010E949804EA94EE20F2
:1008F000C1F743CEF30166817781CB012B96E2E10C
:100900000C943E05FC010590615070400110D8F731
:10091000809590958E0F9F1F0895FC016150704047
:1009200001900110D8F7809590958E0F9F1F089524
:100930000F931F93CF93DF938C01EB018B8181FF8A
:100940001BC082FF0DC02E813F818C819D812817A5
:10095000390764F4E881F9810193F983E88306C0DB
:10096000E885F985802F0995892B31F48E819F8147
:1009700001969F838E8302C00FEF1FEFC801DF91A6
:10098000CF911F910F910895FA01AA27283051F1B4
:10099000203181F1E8946F936E7F6E5F7F4F8F4FB0
:1009A0009F4FAF4FB1E03ED0B4E03CD0670F781F0F
:1009B000891F9A1FA11D680F791F8A1F911DA11DF4
:1009C0006A0F711D811D911DA11D20D009F468942D
:1009D0003F912AE0269F11243019305D3193DEF6D5
:1009E000CF010895462F4770405D4193B3E00FD08B
:1009F000C9F7F6CF462F4F70405D4A3318F0495D76
:100A000031FD4052419302D0A9F7EACFB4E0A69558
:100A10009795879577956795BA95C9F7009761057A
:100A2000710508959B01AC010A2E069457954795D0
:100A300037952795BA95C9F7620F731F841F951FC5
:100A4000A01D08952F923F924F925F926F927F92D6
:100A50008F929F92AF92BF92CF92DF92EF92FF92CE
:100A60000F931F93CF93DF93CDB7DEB7CA1BDB0B7A
:100A70000FB6F894DEBF0FBECDBF09942A8839881F
:100A800048885F846E847D848C849B84AA84B98426
:100A9000C884DF80EE80FD800C811B81AA81B98132
:100AA000CE0FD11D0FB6F894DEBF0FBECDBFED0146
:060AB0000895F894FFCF49
:100AB6000A5354415254204D41494E2054494D4504
:100AC6005220544553540025303264202530326478
:0E0AD6002025303264000A0D00E7033B3B1779
:00000001FF
