:100000000C9446000C9450000C9450000C9450003A
:100010000C9450000C9450000C9450000C94500020
:100020000C9450000C9450000C9450000C94500010
:100030000C9450000C9450000C9450000C94500000
:100040000C9450000C9450000C9450000C945000F0
:100050000C9450000C9450000C9450000C945000E0
:100060000C9450000C9450000C9450000C945000D0
:100070000C9450000C9450000C9450000C945000C0
:100080000C9450000C9450000C94500011241FBE8E
:10009000CFEFD0E1DEBFCDBF0E9452000C947F00B5
:1000A0000C94000087E6809399001092980088E1F4
:1000B00080939A0086E880939D008BE060E00E9428
:1000C0007300482F405D20E931E080919B0085FF5F
:1000D000FCCF40939C0080E197E2F9013197F1F762
:1000E0000197D9F7F2CF991B79E004C0991F9617B1
:1000F00008F0961B881F7A95C9F780950895F894A3
:02010000FFCF2F
:00000001FF
