:100000000C9446000C9463000C9463000C94630001
:100010000C9463000C9463000C9463000C946300D4
:100020000C9463000C9463000C9463000C946300C4
:100030000C9463000C9463000C9463000C946300B4
:100040000C9463000C9463000C9463000C946300A4
:100050000C9463000C9401020C9463000C946300F4
:100060000C9463000C9463000C9463000C94630084
:100070000C9463000C9463000C9463000C94630074
:100080000C9463000C9463000C94630011241FBE55
:10009000CFEFD0E1DEBFCDBF11E0A0E0B1E0E0E105
:1000A000FAE002C005900D92A030B107D9F711E037
:1000B000A0E0B1E001C01D92A230B107E1F70E94BB
:1000C000F7010C9406050C940000DA9A10920101D5
:1000D0001092000109C080910001909101010196E8
:1000E00090930101809300018091000190910101A2
:1000F00080569A4E80F3DA980895282F8BB3847037
:100100008BBB822F807F8BBBDA9A109201011092F9
:10011000000109C080910001909101010196909326
:1001200001018093000180910001909101018056AE
:100130009A4E80F3DA98822F90E08F70907024E0CE
:10014000880F991F2A95E1F78BBBDA9A109201016B
:100150001092000109C08091000190910101019667
:100160009093010180930001809100019091010121
:1001700080569A4E80F3DA9808958FEF8ABB1092DA
:1001800001011092000109C08091000190910101CC
:10019000019690930101809300018091000190915C
:1001A000010180569A4E80F38BB384708BBB81E043
:1001B0000E947D008FE00E947D0082E00E947D0011
:1001C00080E80E947D00109201011092000109C098
:1001D000809100019091010101969093010180931B
:1001E0000001809100019091010180569A4E80F3A8
:1001F0000895282F81E08BBB8BB382708BBB822F3D
:10020000807F81608BBBDA9A10920101109200010D
:1002100009C0809100019091010101969093010124
:1002200080930001809100019091010180569A4EC7
:1002300080F3DA982295207F21602BBBDA9A109206
:1002400001011092000109C080910001909101010B
:10025000019690930101809300018091000190919B
:10026000010180569A4E80F3DA980895EF92FF923A
:100270001F93CF93DF937C0181E08BBB8BB38270A4
:100280008BBB10E03DC0103119F480EC0E947D0062
:100290008881807F81608BBBDA9A10920101109275
:1002A000000109C080910001909101010196909395
:1002B000010180930001809100019091010180561D
:1002C0009A4E80F3DA9888818295807F81608BBB1B
:1002D000DA9A109201011092000109C08091000188
:1002E000909101010196909301018093000180910A
:1002F00000019091010180569A4E80F3DA981F5FB9
:10030000E701C10FD11D8881882309F0BCCFDF919F
:10031000CF911F91FF90EF900895EF92FF920F936E
:100320001F93182F64E60E94D304482F282F30E033
:100330008CE99FEF289F7001299FF00C389FF00CEB
:100340001124C701810F911D6AE070E00E94DF0453
:10035000062F842F805D0E94F900802F805D0E940F
:10036000F900105D1E0D86EF9FEF089F002D1124F0
:10037000802F810F0E94F9001F910F91FF90EF9045
:100380000895EF92FF920F931F93082F64E60E9447
:10039000D30490E02CE93FEF829F7001839FF00C23
:1003A000929FF00C1124C701800F911D6AE070E04C
:1003B0000E94DF04162F862F805D0E94F900005DE9
:1003C0000E0D86EF9FEF189F102D1124812F800FA7
:1003D0000E94F9001F910F91FF90EF9008958058AF
:1003E0000E947D00089580540E947D00089580EE53
:1003F00087B98FEE86B90E94BD0078948FEF84BBD9
:10040000FFCF1F920F920FB60F921124AF92BF929F
:10041000CF92DF92EF92FF920F931F932F933F9310
:100420004F935F936F937F938F939F93AF93BF93FC
:10043000CF93DF93EF93FF9385B1C82FD0E015BA28
:10044000BE01882777FD8095982F0E94BC035B0131
:100450006C012BEA3AEA4AEA50E40E9470047B01FC
:100460008C0120E030E040E85FE30E942203882313
:1004700014F461E054C0C801B70120E030E04FE758
:1004800053E40E946C0418160CF045C0C601B50177
:1004900020E030E04AE754E40E9426035B016C014F
:1004A00020E030E04AE755E40E9470047B018C01B3
:1004B00020E030E040E85FE30E94220388231CF440
:1004C00061E070E024C0C801B70120E03FEF4FE7D2
:1004D00057E40E946C041816B4F4C601B50120E07C
:1004E00030E040E251E40E9470040E948E0380E9F3
:1004F00091E005C0FC013197F1F761507040611542
:100500007105C1F70EC0C801B7010E948E03CB016F
:100510000197F1F706C0C801B7010E948E036A95E2
:10052000F1F78FEF85BB6FEF70E06C1B7D0B8827B9
:1005300077FD8095982F0E94BC035B016C012BEA2C
:100540003AEA4AEA50E40E9470047B018C0120E000
:1005500030E040E85FE30E942203882314F461E066
:1005600054C0C801B70120E030E04FE753E40E94D7
:100570006C0418160CF045C0C601B50120E030E04F
:100580004AE754E40E9426035B016C0120E030E05E
:100590004AE755E40E9470047B018C0120E030E0C2
:1005A00040E85FE30E94220388231CF461E070E0CE
:1005B00024C0C801B70120E03FEF4FE757E40E9495
:1005C0006C041816B4F4C601B50120E030E040E236
:1005D00051E40E9470040E948E0380E991E005C0FE
:1005E000FC013197F1F76150704061157105C1F759
:1005F0000EC0C801B7010E948E03CB010197F1F72D
:1006000006C0C801B7010E948E036A95F1F7FF91F9
:10061000EF91DF91CF91BF91AF919F918F917F919A
:100620006F915F914F913F912F911F910F91FF908B
:10063000EF90DF90CF90BF90AF900F900FBE0F90D4
:100640001F901895D4D008F481E008950CD00AC109
:1006500002D140F0F9D030F021F45F3F19F0EBC047
:10066000511134C1EEC00FD198F39923C9F355232A
:10067000B1F3951B550BBB27AA2762177307840795
:1006800038F09F5F5F4F220F331F441FAA1FA9F34B
:1006900033D00E2E3AF0E0E830D091505040E6953D
:1006A000001CCAF729D0FE2F27D0660F771F881F9E
:1006B000BB1F261737074807AB07B0E809F0BB0B8D
:1006C000802DBF01FF2793585F4F2AF09E3F5105B1
:1006D00068F0B1C0FBC05F3FECF3983EDCF3869559
:1006E00077956795B795F7959F5FC9F7880F911D27
:1006F0009695879597F90895E1E0660F771F881F13
:10070000BB1F621773078407BA0720F0621B730BC5
:10071000840BBA0BEE1F88F7E0950895BCD088F0E3
:100720009F5790F0B92F9927B751A0F0D1F0660FDD
:10073000771F881F991F1AF0BA95C9F712C0B130F8
:1007400081F0C3D0B1E00895C0C0672F782F88270B
:10075000B85F39F0B93FCCF3869577956795B39537
:10076000D9F73EF490958095709561957F4F8F4FA6
:100770009F4F0895E89409C097FB3EF490958095AB
:10078000709561957F4F8F4F9F4F9923A9F0F92F57
:1007900096E9BB279395F695879577956795B795D5
:1007A000F111F8CFFAF4BB0F11F460FF1BC06F5FBB
:1007B0007F4F8F4F9F4F16C0882311F096E911C0CD
:1007C000772321F09EE8872F762F05C0662371F0EE
:1007D00096E8862F70E060E02AF09A95660F771F02
:1007E000881FDAF7880F9695879597F90895990FDE
:1007F0000008550FAA0BE0E8FEEF16161706E807EB
:10080000F907C0F012161306E407F50798F0621B0B
:10081000730B840B950B39F40A2661F0232B242BE0
:10082000252B21F408950A2609F4A140A6958FEFFF
:10083000811D811D089597F99F6780E870E060E051
:1008400008959FEF80EC089500240A941616170669
:1008500018060906089500240A94121613061406B1
:1008600005060895092E0394000C11F4882352F014
:10087000BB0F40F4BF2B11F460FF04C06F5F7F4FCC
:100880008F4F9F4F089557FD9058440F551F59F0B3
:100890005F3F71F04795880F97FB991F61F09F3F6D
:1008A00079F087950895121613061406551FF2CF96
:1008B0004695F1DF08C0161617061806991FF1CFE6
:1008C00086957105610508940895E894BB2766270D
:1008D0007727CB0197F908958ADF08F48FEF089501
:1008E0000BD0C0CFB1DF28F0B6DF18F0952309F0A8
:1008F000A2CFA7CF1124EACFC6DFA0F3959FD1F3F3
:10090000950F50E0551F629FF001729FBB27F00DBD
:10091000B11D639FAA27F00DB11DAA1F649F662712
:10092000B00DA11D661F829F2227B00DA11D621F61
:10093000739FB00DA11D621F839FA00D611D221F1B
:10094000749F3327A00D611D231F849F600D211DFF
:10095000822F762F6A2F11249F5750408AF0E1F0A2
:1009600088234AF0EE0FFF1FBB1F661F771F881FEB
:1009700091505040A9F79E3F510570F05CCFA6CF33
:100980005F3FECF3983EDCF3869577956795B795D6
:10099000F795E7959F5FC1F7FE2B880F911D969500
:1009A000879597F90895991B79E004C0991F9617C8
:1009B00008F0961B881F7A95C9F78095089597FBD4
:1009C000092E07260AD077FD04D00CD006D00020CF
:1009D0001AF4709561957F4F0895F6F7909581957B
:1009E0009F4F0895AA1BBB1B51E107C0AA1FBB1F45
:1009F000A617B70710F0A61BB70B881F991F5A95AB
:100A0000A9F780959095BC01CD010895F894FFCF8A
:00000001FF
